:020000040800F2
:10000000004000201D350008631B0008651B000828
:1000100000000000000000000000000000000000E0
:10002000000000000000000000000000671B000846
:100030000000000000000000691B00086B1B0008A6
:100040006D3500086D3500086D3500086D35000808
:100050006D3500086D3500086D3500086D350008F8
:100060006D3500086D350008751B00086D350008FA
:100070006D3500086D3500086D3500086D350008D8
:100080006D3500086D3500086D3500086D350008C8
:100090006D3500086D3500086D3500086D350008B8
:1000A0006D3500086D3500086D3500086D350008A8
:1000B0006D3500086D3500086D3500086D35000898
:1000C00010B5064C2378002B07D1054B002B02D02E
:1000D000044800E000BF0123237010BD1000002081
:1000E00000000000DC350008044B10B5002B03D0E5
:1000F0000349044800E000BF10BDC04600000000F6
:1001000014000020DC350008002243088B4274D321
:1001100003098B425FD3030A8B4244D3030B8B4208
:1001200028D3030C8B420DD3FF22090212BA030C11
:100130008B4202D31212090265D0030B8B4219D3F2
:1001400000E0090AC30B8B4201D3CB03C01A524112
:10015000830B8B4201D38B03C01A5241430B8B425A
:1001600001D34B03C01A5241030B8B4201D30B0343
:10017000C01A5241C30A8B4201D3CB02C01A52416A
:10018000830A8B4201D38B02C01A5241430A8B422D
:1001900001D34B02C01A5241030A8B4201D30B0216
:1001A000C01A5241CDD2C3098B4201D3CB01C01A30
:1001B000524183098B4201D38B01C01A524143093A
:1001C0008B4201D34B01C01A524103098B4201D328
:1001D0000B01C01A5241C3088B4201D3CB00C01A95
:1001E000524183088B4201D38B00C01A524143080D
:1001F0008B4201D34B00C01A5241411A00D2014632
:10020000524110467047FFE701B5002000F0F0F8BA
:1002100002BDC0460029F7D076E7704703460B437E
:100220007FD4002243088B4274D303098B425FD3EF
:10023000030A8B4244D3030B8B4228D3030C8B421B
:100240000DD3FF22090212BA030C8B4202D3121201
:10025000090265D0030B8B4219D300E0090AC30BD6
:100260008B4201D3CB03C01A5241830B8B4201D383
:100270008B03C01A5241430B8B4201D34B03C01A6C
:100280005241030B8B4201D30B03C01A5241C30AE4
:100290008B4201D3CB02C01A5241830A8B4201D355
:1002A0008B02C01A5241430A8B4201D34B02C01A3F
:1002B0005241030A8B4201D30B02C01A5241CDD2E4
:1002C000C3098B4201D3CB01C01A524183098B422F
:1002D00001D38B01C01A524143098B4201D34B0118
:1002E000C01A524103098B4201D30B01C01A52417B
:1002F000C3088B4201D3CB00C01A524183088B4202
:1003000001D38B00C01A524143088B4201D34B00EA
:10031000C01A5241411A00D201465241104670475C
:100320005DE0CA0F00D04942031000D34042534061
:1003300000229C4603098B422DD3030A8B4212D321
:10034000FC22890112BA030A8B420CD38901921153
:100350008B4208D3890192118B4204D389013AD090
:10036000921100E08909C3098B4201D3CB01C01A65
:10037000524183098B4201D38B01C01A5241430978
:100380008B4201D34B01C01A524103098B4201D366
:100390000B01C01A5241C3088B4201D3CB00C01AD3
:1003A000524183088B4201D38B00C01A5241D9D2EB
:1003B00043088B4201D34B00C01A5241411A00D26C
:1003C0000146634652415B10104601D34042002B68
:1003D00000D54942704763465B1000D3404201B5E7
:1003E000002000F005F802BD0029F8D016E770479C
:1003F0007047C0468446101C62468C46191C6346F2
:1004000000E0C0461FB500F0D5FB002801D4002154
:10041000C8421FBD10B500F02DFB4042013010BD99
:1004200010B500F0C7FB002801DB002010BD012043
:1004300010BDC04610B500F0BDFB002801DD002056
:1004400010BD012010BDC04610B500F04FFB0028C4
:1004500001DC002010BD012010BDC04610B500F029
:1004600045FB002801DA002010BD012010BDC04668
:10047000F0B55746DE464E464546E0B58346070092
:100480000E03480085B092461C00360B400DCD0F80
:10049000002800D19DE0954B984239D08023F6008A
:1004A0001B041E43924A7B0F334399469446030034
:1004B0006344009300230026FF00029323031B0BD9
:1004C00098466300E40F52465B0D019400D1B3E0FF
:1004D00086498B4200D19EE04246D1008022120420
:1004E0000A435146490F11438B46814952468C4677
:1004F00000996344CB1A0021D20000932B00634083
:100500009A460F2E00D905E17A4BB6009B599F46BB
:100510005B463343994600D0B8E002230826002703
:1005200000900293CAE7CB463A0002990195019BDD
:100530009A46022927D0032900D180E2012944D01C
:100540006D49009B8C4663441C00002C38DD53072A
:1005500000D013E2D2085B46DB0109D55946674B50
:1005600019408B468021C9008C46009B63441C00C7
:10057000634B9C4207DC5B4664055F075B021743E5
:100580001B0B620D02E000230027584A00211B03C9
:100590001C0B0B0D1B05234314055A4A380013404E
:1005A0001C4353466400DB0764081C43210005B06C
:1005B0003CBC90469946A246AB46F0BD0122524251
:1005C00001231B1B382B00DCADE100220023002798
:1005D000DCE75B46334399465ED0002E00D18AE1CA
:1005E000300001F079F903000B3B1C2B00DD7BE1AF
:1005F0001D22D31A5A460100DA4008398E401300F2
:100600005F46334399468F403F4B00261B1A0093A9
:100610000023029352E7414653460B433B499B4616
:100620008C46009B634400935B46002B3BD1022326
:1006300000221E43022161E7434613439B4637D005
:100640004346002B00D162E1404601F045F903002A
:100650000B3B1C2B00DD53E102004146083A914060
:1006600088461D21CB1A5146D9400B0041460B4309
:100670009B46534693401A00009B25499C46604484
:1006800003008C4663440093002137E70323B146FF
:1006900000900C26029311E70023009301330426F7
:1006A000002702930AE70323C3461E43032125E7DD
:1006B00001331E430022012120E700239A468023B4
:1006C00000271B03094A61E7802349461B0319429F
:1006D00000D1E2E05946194200D0DEE00B431B0393
:1006E00017001B0BA246014A50E7C046FF07000057
:1006F00001FCFFFF14360008FF030000FFFFFFFEB0
:10070000FE070000FFFF0F800DFCFFFF01F8FFFF59
:10071000F3030000D94500D9CBE000D1C6E03C008E
:1007200048460027009B013B00935B46160E1B02C8
:100730001E431302984633041B0C9946310C019159
:10074000FFF768FD4A4642430B04210C050019439C
:100750008A4207D98919013D8E4203D88A4201D9BC
:10076000851E8919881A0199FFF754FD09048C46E2
:100770004A46210464464243090C030021438A424D
:1007800004D98919013B8E4200D8F1E02D041D43A4
:10079000AB464346891A4246280C12041D0C5B46A0
:1007A000140C22001B041B0C5A4303946B43444358
:1007B000029568431B19150CEB189C4203D9802441
:1007C0006402A44660441C0C15041B042D0C201864
:1007D0005D19814277D373D00C1AA24A7D1BAF42B8
:1007E000BF419446009B7F426344E01B1C0086424D
:1007F00000D1DBE00199FFF70DFD4A4642430B04AF
:10080000290C070019438A4207D98919013F8E42F2
:1008100003D88A4201D9871E8919881A0199FFF7DE
:10082000F9FC09044A46894629044D464243090C0D
:10083000030029438A4207D98919013B8E4203D814
:100840008A4201D9831E89193F04891A3A00039FFD
:100850001A43380013041B0C584381460298150CA8
:100860006F43434345434846000C8446DB196344C9
:100870009F4203D9802040028446654448461F0CAD
:1008800000041B04000C7D191818A94200D284E052
:1008900000D17FE001231A4357E680234A461B0319
:1008A00013431B031B0BAA466F4A6FE6BA4200D9DB
:1008B00035E74B46DC0758087B081C43FF0734E745
:1008C0000024AF4289D247444745A4415B46644275
:1008D000A4196418013BA6421ED2A0426DD800D1D3
:1008E000B6E0241A9B4678E703005A46283B9A4014
:1008F0000027914688E6584600F0EEFF203072E669
:1009000003005246283B9A4093460022B4E65046E4
:1009100000F0E2FF20309AE6A642E2D1B845DCD9E9
:10092000341A9B4659E71F2B65DC504C0099A446AE
:100930005C46614408008C4011008240D940501E42
:1009400082410C4314435A46DA401300620709D02F
:100950000F222240042A05D02200141D944289410E
:1009600049425B181A0262D50122002300270DE6D6
:100970008A4200D80AE7831E891907E70F2313402C
:10098000042B00D1E6E5171D9742924153429B4448
:10099000FA08E0E5002800D1D7E57118531EB142EE
:1009A00027D3A94215D358D01A0073E7002B00DCD7
:1009B00004E6012300229B44CDE50223474447453A
:1009C00089415B429C46494289190C19E344241A27
:1009D00003E743465F0047459B41B8465B429E198B
:1009E000023A8919A94200D054E7404500D051E7A6
:1009F000ABE51A00F6E71F215F4649420C1BE740B2
:100A0000202B07D01A49009B8C46634418005B4694
:100A100083401A43501E82413A4307270023174060
:100A200009D00F21002311401400042995D1220080
:100A30005F075B021B0BD20817430022A6E5802349
:100A400059461B030B431B0317001B0B064A9DE56E
:100A5000BD42B2D89B460024BFE68045B9D31A00F8
:100A6000C3E7C046FF030000FF0700001E040000AC
:100A70003E040000F0B54F464646D6468446C0B513
:100A80008046194E18030F034D00000B5C00824690
:100A90003F0B6D0DC90F9146640DDB0F0120B54270
:100AA0000AD0B44203D0A54201D157450CD01CBC9A
:100AB00090469946A246F0BD66463E43F7D1AC4209
:100AC000F5D154461443F2D10120C845EFD19942E3
:100AD00007D0002DEBD163461F433800471EB841B5
:100AE000E5E70020E3E7C046FF070000F0B54F460A
:100AF0004646D6464D00C0B50E03C90F8A462C495E
:100B00001F035C008046360B6D0D91463F0B640D54
:100B1000DB0F8D421ED08C4216D0002D1ED13043EB
:100B20008446002C01D13A4323D06246002A1AD0D1
:100B30009A4529D0514602200139084001381CBC91
:100B400090469946A246F0BD39001143E5D00220F7
:100B50004042F4E73043FAD1AC420FD0002C0FD121
:100B60003A43E7D00CE00122013B934318000130E7
:100B7000E5E763460020002BE1D0DBE73A43E6D10E
:100B80009A45D7D1A542D5DCA54205DBBE42D1D8D6
:100B900008D00020BE42D2D25046012301389843EB
:100BA0000130CCE7C845C5D80020C845F4D3C6E716
:100BB000FF070000F0B54F464646D6464D00C0B58B
:100BC0000E03C90F8A462E491F035C008046360B70
:100BD0006D0D91463F0B640DDB0F8D4218D08C429A
:100BE00011D0002D18D130438446002C1ED13A4339
:100BF0001CD163460020002B30D051460220013921
:100C0000084001382AE039001143EAD0022025E0EB
:100C10003043FBD1AC4226D0002C26D13A4324D11C
:100C20005146022001390840013817E06246002A87
:100C30000FD09A45E1D1A54205DBBE42DDD819D0DF
:100C40000020BE420AD250460123013898430130A9
:100C500004E00122013B9343180001301CBC904684
:100C60009946A246F0BD3A43D0D19A45C5D1A54296
:100C7000C3DCE0E7C845C0D80020C845E3D3EDE7B2
:100C8000FF070000F0B55746DE464E464546E0B544
:100C9000834606000F03480087B092461D003F0BB5
:100CA000400DCC0F002800D16FE0DE4B984238D0C9
:100CB0008023FF001B041F43730F3B430193DA4B58
:100CC0000027994600239B46F60081442B036900C8
:100CD0001B0B52469846490DED0F002900D185E0C7
:100CE000D04B994200D173E04346DA0080231B04C5
:100CF00013435246CC48520F8446134352460020B9
:100D00006144D20089442100694000918C46012150
:100D100049448A460F2F00D990E0C449BF00CF59FB
:100D2000BF465B463B43019300D06AE1022308279C
:100D3000002681469B46C9E732005846019B614622
:100D40000091022800D175E0032800D1FEE10128BE
:100D500000D02CE100230027002600253F032A0DA8
:100D60003F0BB34812053A4302401B051343009A58
:100D70005B00D1075B080B433000190007B03CBC97
:100D800090469946A246AB46F0BD5B463B43019375
:100D900000D12FE1002F00D1A5E1380000F09CFD2B
:100DA00003000B3B1C2B00DD96E11D22D31A5A4693
:100DB0000100DA405E4608398F4013008E403B4305
:100DC00001939C4B00271B1A994600239B467DE705
:100DD000414653460B4393498C46E144002B00D0D7
:100DE0001AE102220220174300228CE7134300D1AC
:100DF0000DE14346002B00D181E1404600F06CFD3F
:100E000002000B3A1C2A00DD72E10100434608395A
:100E10008B4098461D239A1A5346D3401A004346E6
:100E2000134352468A404946081A824989468144FA
:100E3000002068E77B4B002700268EE7140C120485
:100E4000120C1100370C3604350C794328008C46FF
:100E50002E0060436044834656432100300C804698
:100E60005846794340440291844506D988468021FA
:100E700049028C46E044414602913604010C360C8E
:100E800000048B4681191E0C1B041B0C03911900D6
:100E900079438C46280075436544A8465843050CA1
:100EA00045447743A94203D9802149028C466744CF
:100EB000290C8C4639000004000C2D042D186144C7
:100EC000AB4405915946049101990F043F0C080C5D
:100ED000390051434243904602008C46090C8B4630
:100EE00062437C4344445C44A04503D980214902C9
:100EF00088464244210C884661460904090C8C4608
:100F000039005943434370437E430F0CF6182404C1
:100F1000BE19644442448C46B34203D980235B0229
:100F200098464044029B61469846049B37044344DC
:100F30009B46AB45AD416B420D0405992D0C8C468B
:100F40007F196744FD18A8465D462D19A542A441A6
:100F500093466442A446C344DC448F42BF41984553
:100F60009B4193459241A445A4415B427F421F436C
:100F7000360C52426442BF192243BF1862463818E9
:100F80004302D20D039913436A020A43501E824161
:100F90006146ED0D2A434E023243D90100D4B3E03D
:100FA0000126500832400243DE0732435B08224CE0
:100FB0005444002C62DD510709D00F201040042852
:100FC00005D0101D9042924152429B180200D90157
:100FD00004D580241948E40003405444184884424E
:100FE00000DD27E75E075B02D2081F0B630516438F
:100FF0005B0DB2E6002399460133042700269B4689
:1010000064E60323019781460C279B465EE6012296
:1010100001201743002276E6032303201F434346A3
:1010200071E6C046FF07000001FCFFFF54360008D0
:10103000FFFF0F800DFCFFFFFF030000FFFFFFFE1F
:10104000FE0700000023802700933F030026434B48
:1010500083E6019B3200A446584670E6AC466EE635
:10106000802701993F0339422DD03B422BD11F43AA
:101070003F033F0B00951600384B6EE601252D1BF4
:10108000382D00DD66E61F2D40DC35481C0050443D
:10109000160082408440EE40501E82413443144387
:1010A000EB40620709D00F222240042A05D022001B
:1010B000141D9442804140421B181A023ED5012360
:1010C0000027002649E68027019B3F031F433F037B
:1010D0003F0B0094214B40E603005A46283B9A40C0
:1010E000002601926DE6584600F0F6FB203057E6E8
:1010F00003005246283B9A401300002293E65046D4
:1011000000F0EAFB20307BE6CA4650E71F201E00B5
:101110004042041BE640202D03D0124C5444A3400F
:101120001A43501E8241324307260027164009D039
:101130000F200023104014000428B9D122005E07BC
:101140005B021F0BD2081643002306E680273F03ED
:101150001F433F033F0B1600004BFEE5FF07000057
:101160001E0400003E040000F8B557464E464546B2
:10117000DE460C000903E0B5490A460F5F00314323
:101180001E03DB0F760A9B46530F3343C84E6500A0
:10119000C000E40FD2006D0DA24681467F0D9C4633
:1011A0009046B74200D1B9E05B46012673409B46AA
:1011B000EE1BA34500D183E0002E63DD002F00D09D
:1011C000B1E06346134300D123E1731E002B00D02E
:1011D000BAE1861A6346B04280410125C91A4042ED
:1011E000091A0B0200D447E149024B0A98464346CC
:1011F000002B00D189E1404600F06EFB0300083B64
:101200001F2B00DD7CE120223000D21A4146D04065
:10121000994002009E400A439D4200DD6AE15D1B49
:101220006B1C1F2B00DD94E1202110003500C91A32
:101230008E40DA408840DD40711E8E411100072249
:101240002843002506433240002A09D00F233340AB
:10125000042B05D0331DB342B641764289191E00D6
:101260000B0200D43DE26A1C914B55056D0D9A426C
:1012700000D119E18F4AF6080A4057075202374356
:10128000120B9BE0002E00D0C5E06E1C7605760D9B
:10129000012E00DC48E16746861ACB1BB042BF41F5
:1012A0007F42B8461F004346FF1A3B00B8461B0268
:1012B00000D55FE137439AD100220024002579E070
:1012C000002E00DCFAE0002F00D18DE0784B9D422B
:1012D00067D0802367461B041F43BC46382E00DCC2
:1012E00052E1634613435A1E93411E1886428041C1
:1012F000404209180B0200D4BEE06D4B01359D42FF
:1013000000D1D2E06B4A73080A4001210E401E430F
:101310005108D30707221E43324095E71E001643AB
:1013200000D045E740E7624B9D423AD080236746B4
:101330001B041F43BC46382E00DDEBE01F2E00DCF3
:101340003AE133006746203BDF403B00202E05D0CA
:101350004027BF1B6646BE40324390464646721E3B
:1013600096413343DAE0002B00D114E26346134385
:1013700000D168E180234E07C008C9081B0306435B
:10138000194208D06046C008184204D163460100E3
:10139000D2085E071643F3009946C900720F444D08
:1013A00011434B46DE08424B4F073743CA089D4264
:1013B00000D16EE012036D05120B6D0D00211203BA
:1013C000130B0A0D12051A433B4B2D0513402B43FB
:1013D0005B00E4075B082343380019003CBC9046DF
:1013E0009946A246AB46F8BD6346134311D0731E1F
:1013F000002B00D007E186188642804161444042BC
:10140000091801250B0237D502257BE73E0061460E
:1014100091463500C5E75C46002D00D0E1E00B00A9
:101420000343F3D0731C00D1ACE1214B9F4200D1A8
:101430003AE1F343382B00DD6FE11F2B00DD8CE137
:1014400020250E00ED1AAE40B0460600AA46DE404A
:10145000454635432E005546D940A8406346451EB3
:10146000A8415B1A9C463043161AB2429241634629
:101470005242991A3D00B4E607223240002A00D0B9
:10148000E4E60B4BF6084F073743CA089D4200D0ED
:1014900090E73B00134300D1A6E180231B031A43CE
:1014A0001203120B024D89E715000022002785E781
:1014B000FF070000FFFF7FFFFFFF0F80002E00D01F
:1014C000C7E06B1C5E05760D012E00DCF0E0C84D18
:1014D000AB4200D1B9E085180A00854289416244D7
:1014E000494251180722CE076D082E434908324061
:1014F0001D00A9E6BF49ED1A114007223240A3E6BC
:10150000320028388240002686E6300000F0E4F9F8
:10151000203073E6634613435A1E9341C61AB04205
:1015200080414042091A5CE60E00674606431743B5
:10153000002D5ED1002E00D0F3E0002F00D11EE17F
:101540005C46614691462CE7A94FBE427BD01E0007
:10155000F1E610001F3DE840202B03D04021CB1ABC
:101560009A401643731E9E410722064332400021D3
:10157000002583E7161A6346B2428041591A404259
:101580000B1A98465C4632E61F2E00DDABE02027A2
:10159000BB1B9A4663465746BB40994613004F46CD
:1015A000F3401F433B005746BA40571EBA4113430E
:1015B0006246F240891898E62027BB1B9A4663468C
:1015C0005746BB40994613004F46F3401F433B002C
:1015D0005746BA40571EBA4113436246F240891A31
:1015E0009CE7834B9F425FD080252D0473422943A3
:1015F00020E7002E0CD1002F00D1D0E05C466146E0
:1016000091467B4DCDE67A4FBE421CD01E0065E66A
:10161000002F18D0C0084E0706438020C9080003D9
:10162000014208D06346DC08044204D12100DA46B6
:10163000D2085E071643F300994601245346C900B9
:10164000720F11431C406A4DABE61D0000220027BB
:10165000B4E6002D59D10B00034300D1D6E6731C2C
:1016600000D1B2E0624B9F421ED0F343382B6FDCB7
:101670001F2B00DD97E020250E00ED1AAE40B0468E
:101680000600AA46DE40454635432E005546A84092
:10169000D940451EA8418C440643B6189642924153
:1016A000514261443D0025E63D006146914678E6A1
:1016B0000B000343002D00D055E6002BF5D0634608
:1016C000134300D16DE68618864280416144404252
:1016D000091800220B0200D4D0E6464B0135194010
:1016E000B2E5B1465DE633006746203BDF403B0094
:1016F000202E05D04027BF1B6646BE403243904691
:101700004646721E96413343EFE5394B9F42CBD09C
:1017100080252D0473422943A8E70843411E8841D0
:10172000A2E6002F00D13CE66346861ACF1AB042EB
:101730009B415B42FB1A98461B024ED5161A634624
:10174000B2429241591A5242891A5C4600227BE504
:1017500001430E00711E8E419FE71D000E00203DCB
:10176000EE40B046202B04D04025EB1A99400843A8
:10177000814648464346411E8841184374E600228C
:10178000002417E6161A6346B2429241591A524291
:10179000891A3D0025E561469146154D01E68022F6
:1017A0000024120379E61D000E00203DEE40B046F5
:1017B000202B04D04025EB1A9940084381464E4621
:1017C0004346711E8E411E4367E7861896429B4131
:1017D00061445B42C9183D008CE547463743CED093
:1017E00007224146324049E600273A00E6E5C04676
:1017F000FF070000FFFF7FFF30B5144D0A034B00C9
:10180000120B5B0DC90F0024AB4211DD104CA3423B
:1018100010DC8024640322430E4CE41A1F2C0CDDE0
:101820000D48C31ADA4013005C42002900D11C00A5
:10183000200030BD094BCC18FAE7094DE040AC461A
:1018400063449A4013000343EEE7C046FE030000E2
:101850001D0400003304000013040000FFFFFF7F9D
:10186000EDFBFFFF70B500282DD0C317C5185D40F4
:10187000C40F280000F030F8154B1B1A5B055B0DF8
:101880000A2815DD0B38854000222D032D0B002181
:1018900010002D030A0D2D0B12052A430D4D1B05BB
:1018A0002A4013435B00E4075B082343190070BD23
:1018B00002002900153291400A000B21081AC54088
:1018C0002D032D0BE3E70024002300250022DEE793
:1018D0001E040000FFFF0F801C2101231B049842FF
:1018E00001D3000C10391B0A984201D3000A0839B1
:1018F0001B09984201D30009043902A2105C401868
:101900007047C0460403020201010101000000000B
:101910000000000000B589B01022002104A801F0E9
:1019200054FE0E4B596980208002014359615A6967
:1019300002400192019A5A698021C9020A435A6100
:101940005B690B400293029B80239B00039303A9D6
:10195000034801F05DFB09B000BDC0460010024025
:101960000004004800B583B0094A516901231943B6
:101970005161526913400193019B002200210A200A
:1019800001F0F4FC0A2001F023FD03B000BDC046C5
:101990000010024030B591B01C22002109A801F0CE
:1019A00014FE2022002101A801F00FFE184D194B52
:1019B0002B6000246C60AC603B23EB602C616C619D
:1019C000AC61280000F0B8FC280000F0CFFC6023D8
:1019D00009934C3B0A930B940C940D940E940F9422
:1019E000002209A9280000F01FFD0194029403942D
:1019F0000494059480239B0106930794089401A9FD
:101A0000280000F04FFE280000F0C2FA11B030BDEF
:101A1000500500200044014010B50748074B036003
:101A200008234360063B8360036100238361C36135
:101A3000036201F0F5FC10BD48000020005C00408E
:101A400010B598B0302200210CA801F0BEFD102284
:101A5000002107A801F0B9FD1C220021684601F011
:101A6000B4FD20230B931F3B13930BA800F050FEF3
:101A700007230793043B0893002409940A94012147
:101A800007A801F02FF980239B0200930694684673
:101A900001F0C8F918B010BD30B58DB001F096FA5C
:101AA000FFF7CEFFFFF736FFFFF75CFFFFF772FF90
:101AB000FFF7B2FFA5235B00234A0021234800F073
:101AC00037FD234B00200021186059600020214978
:101AD0009860D9601861596133E02B015B1B5C0091
:101AE00001F090FA40082018B4214900FEF77CFC70
:101AF000174C0800FFF7B6FE206061600022154B0E
:101B0000A260E360144A154B226163612100083131
:101B10001022684601F050FD2268636806A800F0B4
:101B200031F8ACB2084B0493102208A9684601F0C2
:101B300043FD069A079B200000F0ECF801350B2DC1
:101B4000CBDD0025FBE7C046BC020020500500208D
:101B5000300000200000F03F333333333333D33FC2
:101B6000FEE77047FEE77047704710B501F03EFA98
:101B700010BD000010B5024801F0A3FB10BDC04627
:101B80009005002082B0F0B589B006000E920F9348
:101B9000109B119C1800210000900191002200234D
:101BA000FEF748FC002862D10E9C0F9D0022554B89
:101BB00020002900FEF752FC002801D00024002557
:101BC0000022514B20002900FEF752FC04000D00BA
:101BD000FFF712FE0700FFF745FE02000B00200092
:101BE0002900FFF7C1FA02900391129C139D009AFD
:101BF000019B00204549FFF7B7FA02000B002000C7
:101C00002900FFF73FF804900591029A039B009882
:101C10000199FFF737F802000B0000203B49FFF75E
:101C2000A3FA02000B0020002900FFF72BF8069012
:101C30000791029A039B00203449FFF795FA0200AE
:101C40000B0000980199FFF71DF802000B0000201F
:101C50002E49FFF789FA02000B0020002900FFF748
:101C600011F8042F42D8BB00294AD3589F46129A34
:101C7000139BB260F3603260736032617361300055
:101C800009B0F0BC08BC02B01847B460F560306021
:101C90007160049B059C33617461F0E7069A079BB1
:101CA000B260F36034607560049B059C33617461BD
:101CB000E5E7049A059BB260F360346075603061BB
:101CC0007161DCE7049A059BB260F360069A079B9A
:101CD0003260736034617561D1E7B060F160049A7D
:101CE000059B3260736034617561C8E7B460F5606C
:101CF000049B059C33607460069B079C3361746190
:101D0000BDE7C0460080764000004E400000F03F36
:101D10009436000882B070B50400049205930A9DC1
:101D20000022714B04980599FEF7ACFFFFF764FDA4
:101D3000030600D4A8E0222263001B191C012A53C9
:101D4000430600D4A2E02222A31CEA52830600D458
:101D50009EE02222231DEA52C30600D49AE02222EA
:101D6000A31DEA52030700D496E022222300083381
:101D7000EA52430700D491E0222223000A33EA52B8
:101D8000830700D48CE0222223000C33EA52C307DD
:101D900000D487E0222223000E33EA520022524B65
:101DA00006980799FEF76EFFFFF726FD030600D49D
:101DB0007AE0222223001033EA52430600D475E071
:101DC000222223001233EA52830600D470E022223A
:101DD00023001433EA52C3066CD5222223001633A3
:101DE000EA52030768D5222223001833EA52430738
:101DF00064D5222223001A33EA52830760D52222B7
:101E000023001C33EA52C3075CD5222223001E3371
:101E1000EA520022344B08980999FEF733FFFFF786
:101E2000EBFC030650D5222223002033EA5243065E
:101E30004CD5222223002233EA52830648D522229F
:101E400023002433EA52C30644D52222230026333A
:101E5000EA52030740D5222223002833EA524307DF
:101E60003CD5222223002A33EA52830738D5222286
:101E700023002C33EA52C30734D410232E342B53BF
:101E800070BC08BC02B01847102255E710225BE76F
:101E900010225FE7102263E7102267E710226CE749
:101EA000102271E7102276E7102283E7102288E7DC
:101EB00010228DE7102291E7102295E7102299E772
:101EC00010229DE71022A1E71022ADE71022B1E712
:101ED0001022B5E71022B9E71022BDE71022C1E7B2
:101EE0001022C5E72223C9E700E06F4082B00A4B09
:101EF000996901221143996199690A400092009AF7
:101F0000DA69802149050A43DA61DB690B400193F4
:101F1000019B02B07047C0460010024010B582B06D
:101F20000400174B02689A4201D002B010BD154A56
:101F3000916980208002014391619369034001937C
:101F4000019B1148114B0360102343600023836001
:101F50008033C360803303618023DB00436120232F
:101F6000836180239B01C36101F048F9002803D1FC
:101F7000054B63625C62D8E7FFF7F2FDF8E7C04605
:101F80000044014000100240900500203000024053
:101F900010B586B004001422002101A801F015FB41
:101FA00022680E4B9A4201D006B010BD0C4A51690E
:101FB0008020C00201435161536903400093009B9C
:101FC00080235B000193FE3B02930322049205935E
:101FD00001A9044801F01CF8E6E7C04600440140AE
:101FE000001002400004004882B00268074B9A4289
:101FF00001D002B07047064AD16980200004014335
:10200000D161D36903400193019BF2E7005C00407A
:10201000001002404022835A02490B439BB2835274
:102020000020704780BFFFFF4022835A02490B40C7
:10203000835200207047C0467F40000084B010B536
:10204000039104920593402201238352002383527B
:10205000043283520C328352FFF7DCFF002010BCA5
:1020600008BC04B01847000030B5036A012293434E
:102070000362036A426884697325AC430D682C438C
:102080000225AB438D682B43144DA84208D0144D54
:10209000A84205D0134DA84202D0134DA84205D145
:1020A0000825AB43CD682B430425AB430B4DA84219
:1020B00008D00B4DA84205D00A4DA84202D00A4DC7
:1020C000A84205D1094D2A404D692A438D692A430A
:1020D000426084614A684263036230BD002C014063
:1020E000004001400044014000480140FFFCFFFF68
:1020F00070B5036A194A13400362036A4268C469EF
:102100007325AC430E682643154C23408C6824028B
:102110002343144CA04219D0124CA04208D0124CB8
:10212000A04205D0114CA04202D0114CA04207D1D0
:10213000104C14404A69120122438C6925012A433C
:102140004260C6614A68C263036270BD0A4C1C40AB
:10215000CB681B022343094C2340DDE7FFFEFFFF52
:10216000FFFDFFFF002C0140004001400044014002
:1021700000480140FFCFFFFFFFF7FFFFFFFBFFFF1E
:1021800030B5036A134A13400362026A4368C469A4
:10219000114D2C400D682D022C43104D15408A68BE
:1021A00012032A430E4DA84208D00E4DA84205D076
:1021B0000D4DA84202D00D4DA84204D10C4D2B402C
:1021C0004D69AD012B434360C4614B6803640262F7
:1021D00030BDC046FFEFFFFFFF8CFFFFFFDFFFFFBB
:1021E000002C0140004001400044014000480140F3
:1021F000FFBFFFFF7047704710B5446A3D230122BF
:10220000E254636A83420BD0A36A834210D0E36A2C
:10221000834210D0236B834204D10823237701E04B
:10222000012323772000FFF7E6FF0023237710BD6B
:1022300002232377F6E704232377F3E7704710B5EB
:10224000446A3D230122E254636A83420BD0A36AAD
:10225000834210D0E36A834210D0236B834204D1BF
:102260000823237701E0012323772000FFF7E6FF0F
:102270000023237710BD02232377F6E70423237777
:10228000F3E7704710B5406A3D230122C254FFF7BF
:10229000F8FF10BD0368214A904206D08022D20583
:1022A000904202D01E4A904203D1702293434A6862
:1022B00013431A4A904212D08022D20590420ED087
:1022C000174A90420BD0174A904208D0164A9042C3
:1022D00005D0164A904202D0154A904203D1154AC1
:1022E0001340CA681343802293434A69134303602F
:1022F0008B68C3620B688362084B984208D00A4B14
:10230000984205D0094B984202D0094B984201D11E
:102310000B690363012343617047C046002C0140F1
:102320000004004000200040004001400044014003
:1023300000480140FFFCFFFF70B5041E14D03D2390
:10234000C35C002B0AD03D2502236355211D206864
:10235000FFF7A0FF01236355002070BD3C3300222E
:10236000C254FFF7DBFDEEE70120F6E770B5041E6F
:1023700014D03D23C35C002B0AD03D2502236355B6
:10238000211D2068FFF786FF01236355002070BDE3
:102390003C330022C254FFF72DFFEEE70120F6E7A1
:1023A00070B5036A102293430362036A426884692A
:1023B000174D2C400D682D0225432024A3438C6823
:1023C00024012343134CA04219D0124CA04208D040
:1023D000114CA04205D0114CA04202D0104CA0429A
:1023E00007D1104C14404A69920022438C69A60020
:1023F0003243426085614A688263036270BD802413
:10240000A3431C00CB681B0123434024A343DCE708
:10241000FF8CFFFF002C01400040014000440140C0
:1024200000480140FFF3FFFF70B504000D003C239E
:10243000C35C012B69D03C230121C154013301311C
:10244000C154042A37D019D9082A4AD00C2A2AD1D3
:1024500029000068FFF794FE2268D16980231B01E0
:102460000B43D3612268D36929490B40D3612168AA
:10247000CB692A6912021343CB6114E0002A12D1FE
:1024800029000068FFF7F0FD2268936908210B43DB
:1024900093612268936904398B439361226893693D
:1024A00029690B4393613D230122E254013B002241
:1024B000E254002070BD29000068FFF771FF226818
:1024C000916980231B010B43936122689369104932
:1024D0000B40936121688B692A69120213438B6157
:1024E000E1E729000068FFF703FE2268D3690821AD
:1024F0000B43D3612268D36904398B43D3612268CB
:10250000D36929690B43D361CDE70220D2E7C046E6
:10251000FFFBFFFF10B51F23194001248C40036A05
:10252000A3430362036A8A401A43026210BD00009B
:1025300070B504000D0011003D22825C022A00D11A
:1025400096E03D22825C012A1FD0042D62D026D95C
:10255000082D00D175E00C2D39D1226B4A489062CC
:10256000226B4A48D062226B49481063226840328D
:10257000206B00F06BFE002800D081E02268D1685B
:1025800080235B010B43D36021E0002903D03D226F
:102590000220A054D9E7002BF9D0012039E0002D0A
:1025A00015D1626A38489062626A3848D062626ABD
:1025B0003748106322683432606A00F047FE002812
:1025C00058D12268D16880239B000B43D36001223D
:1025D00029002068FFF79EFF23682E4A934208D007
:1025E0002D4A934205D02D4A934202D02C4A934261
:1025F00004D1596C802212020A435A6422689168FD
:1026000007230B40062B3DD0136801210B431360B9
:10261000002070BDA26A1C489062A26A1B48D0626A
:10262000A26A1B48106322683832A06A00F00EFECE
:10263000002821D12268D1688023DB000B43D360BE
:10264000C5E7E26A10489062E26A1048D062E26A26
:102650000F48106322683C32E06A00F0F7FD002862
:102660000CD12268D16880231B010B43D360AEE7F5
:102670000220CEE70120CCE70120CAE70120C8E70D
:102680000120C6E70020C4E7F92100083F22000826
:1026900085220008002C0140004001400044014018
:1026A0000048014010B53C23C35C012B21D03C22E3
:1026B00001238354104BCC6823408C6823430F4C78
:1026C00023404C6823430E4C23400C6823430D4C9D
:1026D00023400C6923430C4C23404C6923430B4C8F
:1026E0002340C9690B4301684B64002383540020D5
:1026F00010BD0220FCE7C046FFFCFFFFFFFBFFFF11
:10270000FFF7FFFFFFEFFFFFFFDFFFFFFFBFFFFF51
:1027100070B582B0041E00D185E20368DB072BD5BB
:10272000B34B5A680C231340042B1DD0B04B5A688E
:102730000C231340082B0ED06368012B41D0002BD3
:1027400056D1AB4B1A68AB490A401A601A68AA49BD
:102750000A401A603BE0A64B5B68C022520213405D
:10276000802252029342E7D1A14B1B689B0303D501
:102770006368002B00D159E223689B0778D59C4BF6
:102780005B680C221A4262D0994B5A680C231340A2
:10279000082B53D0E368002B00D18BE0944A1368D8
:1027A00001210B43136000F02DFC0500904B1B68CA
:1027B0009B0776D400F026FC401B0228F6D90320A4
:1027C00032E28B4A116880235B020B43136063681B
:1027D000002B25D000F016FC0500854B1B689B03E1
:1027E000CAD400F00FFC401B6428F6D903201BE27A
:1027F000052B09D07E4B1A687E490A401A601A6878
:102800007D490A401A60E2E7794B19688022D202BA
:102810000A431A601968802252020A431A60D6E7F6
:1028200000F0F0FB0500724B1B689B03A4D500F081
:10283000E9FB401B6428F6D90320F5E16C4B5B688B
:10284000C02252021340802212029342A2D1684B4E
:102850001B689B0704D5E368012B01D00120E3E14D
:1028600063490B68F82293432269D20013430B603B
:1028700023681B0744D5E369002B2ED05C4A536ABA
:1028800001210B43536200F0BDFB0500584B5B6A0E
:102890009B0735D400F0B6FB401B0228F6D9032075
:1028A000C2E153490B68F82293432269D2001343D3
:1028B0000B60DDE74E4A136801218B43136000F083
:1028C000A1FB05004A4B1B689B07D1D500F09AFB82
:1028D000401B0228F6D90320A6E1454A536A01218C
:1028E0008B43536200F08EFB0500414B5B6A9B07F4
:1028F00006D500F087FB401B0228F6D9032093E1A0
:1029000023685B0700D47FE0394BDB69DB001DD413
:10291000374AD169802040050143D161D369034022
:102920000193019B0125354B1B68DB0510D5A3687E
:10293000012B21D0002B36D12D4B1A6A01218A435D
:102940001A621A6A03318A431A621AE00025EAE71A
:102950002A4A116880235B000B43136000F052FB8E
:102960000600264B1B68DB05E1D400F04BFB801B07
:102970006428F6D9032057E11D4A136A01210B434D
:102980001362A368002B24D000F03CFB0600184B18
:102990001B6A9B0736D400F035FB801B184B98420E
:1029A000F5D9032040E1052B09D0114B1A6A01210A
:1029B0008A431A621A6A03318A431A62E1E70C4BAE
:1029C0001A6A04210A431A621A6A03390A431A620C
:1029D000D7E700F017FB0600054B1B6A9B0711D5D4
:1029E00000F010FB801B064B9842F5D903201BE139
:1029F00000100240FFFFFEFFFFFFFBFF00700040E2
:102A000088130000012D3AD02368DB0610D56369D6
:102A1000012B3AD0053358D1884A536B04218B439C
:102A20005363536BF4318B43A169C9000B43536368
:102A300023689B0600D482E0804B5A680C23134025
:102A40000C2B60D07D4B5A680C231340082B53D0BD
:102A5000236A002B60D0794A516B80235B020B43C1
:102A6000536300F0CFFA0500744B5B6BDB0366D455
:102A700000F0C8FA401B0228F6D90320D4E06F4AC0
:102A8000D3696F490B40D361BEE76C4B5A6B04218D
:102A90000A435A635A6B03390A435A6300F0B2FA85
:102AA0000500664B5B6B9B0706D400F0ABFA401B3E
:102AB0000228F6D90320B7E060494B6BF822934314
:102AC000A269D20013434B63B2E75C4B5A6B0421FB
:102AD0000A435A635A6B03398A435A6300F092FAE5
:102AE0000500564B5B6B9B07A2D500F08BFA401B91
:102AF0000228F6D9032097E0504B5B68C0225202AF
:102B000013409342A4D14D4B5B6BDB0317D5236A73
:102B1000012B14D0012087E0484A536B49490B40F0
:102B2000536300F06FFA0500444B5B6BDB0306D583
:102B300000F068FA401B0228F6D9032074E0636AAB
:102B4000002B00D174E03D4A51680C220A40082A4B
:102B50004DD0022B12D0394A13683B490B40136009
:102B600000F050FA0400354B1B689B013DD500F086
:102B700049FA001B0228F6D9032055E02F4A1368B2
:102B800031490B40136000F03DFA05002B4B1B68E8
:102B90009B0106D500F036FA401B0228F6D9032027
:102BA00042E0264BDA6A0F218A43216B0A43DA623C
:102BB0005A6826490A40E16AA06A01430A435A60FA
:102BC0001968802252040A431A6000F01BFA0400BC
:102BD0001A4B1B689B0106D400F014FA001B022854
:102BE000F6D9032020E000201EE000201CE0012B8D
:102BF00020D0124B5A68D96AC0235B021340A06AE6
:102C0000834201D001200FE00F230B40216B8B4248
:102C100001D0012008E0F0239B031A40E36A9A42A6
:102C20000AD0012000E0012002B070BD0120FBE7C6
:102C30000020F9E70120F7E70020F5E70010024047
:102C4000FFFFFFEFFFFFFEFFFFFFFFFEFF7FC2FF63
:102C500030B589B004AA1F4B180032C832C2110027
:102C600002680A606A46103313CB13C21B681360F4
:102C7000194B5A680C231340082B04D00C2B26D078
:102C8000164809B030BD910C0F23194004A8445CCC
:102C90001149C96A0B406946C95CC0235B021A40EE
:102CA00080235B029A4208D0C0235B029A4209D07B
:102CB0000A48FDF729FA6043E3E70848FDF724FADC
:102CC0006043DEE70648FDF71FFA6043D9E7044892
:102CD000D7E7C046F43500080010024000127A0021
:102CE000006CDC0270B504000D00002800D189E002
:102CF000464B1A68012313408B420BD243490B68A1
:102D0000012293432B430B600B681A40AA4201D067
:102D1000012078E023689A070ED55B0705D53C4A69
:102D20005168E023DB000B435360394A5368F021BC
:102D30008B43A1680B4353602368DB0735D5636879
:102D4000012B09D0022B24D0032B28D0304A126843
:102D5000920705D4012056E02D4A1268920353D5FC
:102D60002B494A680320824313434B6000F04AF921
:102D70000600274B5B680C221A4063689B009A424E
:102D800013D000F03FF9801B224B9842F1D9032069
:102D900039E01F4A12689201E2D4012033E01C4A54
:102DA000526BD203DCD401202DE0184B1A680123AA
:102DB0001340AB420BD915490B68012293432B43B7
:102DC0000B600B681A40AA4201D001201BE0236867
:102DD0005B0706D50E4A53680F490B40E1680B4369
:102DE0005360FFF735FF0A4B5A6812090F2313404F
:102DF0000A4AD35CD8400A4B1860002000F0BEF8A5
:102E0000002000E0012070BD0120FCE7002002400E
:102E10000010024088130000FFF8FFFFA8360008EA
:102E20000800002070B582B004000368DB0335D5CC
:102E30004B4BDB69DB0066D4494AD16980204005F1
:102E40000143D161D36903400193019B0125454BA7
:102E50001B68DB0559D5424B1B6AC0229200134008
:102E600013D061680A409A420FD03D4B186A3E4A1F
:102E700002401E6A8021490231431962196A3B4EA1
:102E8000314019621A62C30753D4354A136A36496E
:102E90000B4061680B431362012D59D02368DB0797
:102EA00006D52F4A136B03218B43A1680B43136391
:102EB00023689B0706D52A4A136B2D490B40E1680E
:102EC0000B43136323689B0606D5254A136B102119
:102ED0008B4321690B43136323689B0306D5204A68
:102EE000136B80218B43A1690B43136323685B053C
:102EF00033D51B4A136B40218B4361690B4313632A
:102F0000002002B070BD0025A1E7164A1168802399
:102F10005B000B43136000F075F80600114B1B6853
:102F2000DB0598D400F06EF8801B6428F6D90320E6
:102F3000E7E700F067F80600094B1B6A9B07A4D47B
:102F400000F060F8801B0B4B9842F5D90320D8E7BE
:102F5000D36909490B40D361A0E70020D1E7C046FF
:102F60000010024000700040FFFCFFFFFFFFFEFF6B
:102F7000FFFFFCFF88130000FFFFFFEF10B5040008
:102F80000F4B1978FA208000FDF7BEF801000D4BB9
:102F90001868FDF7B9F800F027FA00280DD1032CC6
:102FA00001D901200AE0013000222100404200F056
:102FB000DDF9054B1C60002000E0012010BDC0467B
:102FC00000000020080000200400002010B5064A80
:102FD000136810210B4313600020FFF7CFFFFEF7AB
:102FE00085FF002010BDC04600200240034A116842
:102FF000034B1B785B1813607047C046D405002054
:1030000000000020014B18687047C046D40500201E
:10301000F0B5C64600B582B0002338E0042600E0D3
:103020000026AE4035003D430234A400574EA55162
:10303000574C25684246D4432E0026404A68D203A6
:1030400002D5424615432E00514D2E606D682E006C
:1030500026404A68920302D5424615432E004C4D45
:103060006E60AD682E0026404A68D20202D5424604
:1030700015432E00464DAE60ED682C404A68920222
:1030800002D542462A431400414AD46001330A68FB
:103090001400DC4076D001259D402A409046F5D0B2
:1030A0004C68022C01D0122C0ED1DC080834A4008C
:1030B000275807261E40B6000F22B24097430A69E0
:1030C000B24016003E43265002685F0003242600EB
:1030D000BE40F643324094464A681440BC406246C3
:1030E000144304604C68621E012A03D9112C01D0DC
:1030F000122C10D184683440A446CC68BC4062468F
:10310000144384604468AC434A68120901251540A1
:103110009D4025434560C46826408C68BC403443CC
:10312000C4604A68D200B1D51A4DAE690124264365
:10313000AE61AD692C400194019C9C08A51CAD00BA
:10314000124EAF5903261E40B5000F26AE40B743BE
:103150009026F605B04200D162E70F4EB0420BD088
:103160000E4EB0420AD00E4EB04209D00D4EB042C3
:1031700000D153E7052654E7012652E7022650E71F
:1031800003264EE702B004BC9046F0BD00000140AB
:1031900000040140001002400004004800080048FC
:1031A000000C00480010004870B5C56B0124066C87
:1031B000B4406C60046863604368102B04D00368FB
:1031C00099600368DA6070BD03689A600368D9602B
:1031D000F9E7000010B504000368064A944663440A
:1031E00018001421FCF790FF80002064024BE36379
:1031F00010BDC046F8FFFDBF0000024070B5041EC0
:1032000020D021250223435501680B680E4A1A403D
:10321000436880680343E0680343206903436069AF
:103220000343A0690343E069034313430B60200099
:10323000FFF7D0FF0023A363012262551F32A3547E
:10324000002070BD0120FCE70FC0FFFF70B5040037
:103250002020205C012832D0202001252554013077
:10326000205C012804D020230022E254022070BDFB
:103270002030013525540020A063256828680126E8
:10328000B04328602000FFF78FFFE36A002B0BD0CC
:10329000226813680E210B43136022681368012112
:1032A0000B4313600020E2E7226813680A210B43F6
:1032B00013602268136806398B431360EDE7022020
:1032C000D5E770B5C36B1A6804682568016C0423E0
:1032D0008B401A4212D06B0710D523689B0603D48B
:1032E0002368042293432360C26B0423016C8B4048
:1032F0005360C36A002B00D0984770BD02238B40F7
:103300001A4218D0AB0716D523689B0606D423684B
:103310000A22934323602123093AC254C26B022339
:10332000016C8B40536020230022C254836A002B1F
:10333000E3D09847E1E708238B401A42DDD02B0702
:10334000DBD523680E2293432360C26B012319004F
:10335000046CA14051608363212283541F330022F7
:10336000C254036B002BC8D09847C6E770B500283D
:1033700011DB8308144DC0339B005C5903221040BD
:10338000C000FC3216008640B44389010A408240E6
:1033900022435A5170BDC0B20F230340083B9B0823
:1033A00006339B00094A944663445D680324204029
:1033B000C000FF2214008440A543890111408140D0
:1033C00029435960E6E7C04600E100E000ED00E077
:1033D000002805DB1F2318401E3B8340014A136071
:1033E0007047C04600E100E001380A4B98420FD810
:1033F000094A50600948036A1B021B0AC0210906DA
:103400000B4303620023936007331360002070476F
:103410000120FCE7FFFFFF0010E000E000ED00E00E
:1034200030B587B0041E61D0314BC35C002B07D090
:103430002F4B0322E2542068FEF7F6FD00231AE02A
:103440008A239B000022C254FEF7CEFDF0E75A010A
:10345000A218110029310120087001390B70D386A0
:1034600010002B30002101709163D1639A1C52012E
:1034700011510133DBB260688342E8D3002215E0CA
:103480005301E3181D002A35FF3500212970013D45
:103490002A70033529700D3529603D33FF331960DB
:1034A00013000A335B0119510132D2B29042E7D8BE
:1034B0006A462300103323CB23C203CB03C26168C7
:1034C000A268E3682068FEF7B9FD24230022E254D5
:1034D000074B0132E254E369012B02D0002007B010
:1034E00030BD200000F006F80020F8E70120F6E7E4
:1034F0002902000002689A239B000121C150083B69
:103500000021C1545423D15A01200143D152D15A30
:1035100002200143D1520020704770470D48854674
:103520000D480E490E4A002302E0D458C45004331B
:10353000C4188C42F9D30B4A0B4C002301E01360F2
:103540000432A242FBD3FFF7E8FF00F011F8FEF7C8
:10355000A3FAFEE700400020000000200C0000203D
:10356000C036000810000020D8050020FEE700004B
:1035700070B500260C4D0D4C641BA410A64209D159
:10358000002600F02BF80A4D0A4C641BA410A6423A
:1035900005D170BDB300EB5898470136EEE7B30094
:1035A000EB5898470136F2E7B8360008B8360008FD
:1035B000B8360008BC360008002310B59A4200D186
:1035C00010BDCC5CC4540133F8E7030012189342D9
:1035D00000D1704719700133F9E70000F8B5C04613
:1035E000F8BC08BC9E467047F8B5C046F8BC08BC9D
:0435F0009E4670473C
:1035F40002030405060708090A0B0C0D0E0F101030
:103604000102030405060708090A0B0C0D0E0F102E
:103614001407000886050008CA0500082E050008DE
:10362400CA050008BA060008CA0500082E050008E5
:103634008605000886050008BA0600082E0500085D
:10364400260500082605000826050008C806000807
:103654003C0E00083E0D00083E0D00085C100008FA
:10366400380D0008380D0008441000085C100008EC
:10367400380D000844100008380D00085C100008DC
:103684005210000852100008521000086010000880
:103694008A1C00089C1C0008B21C0008C41C0008FA
:1036A400DA1C00080000000000000000010203040E
:0436B40006070809F4
:0436B800E90000081D
:0436BC00C100000841
:0C36C000010000000400000000127A006D
:040000050800351D9D
:00000001FF
